S010000050726F796563746F2E73726563BF
S11300000C946B000C9488000C9488000C94680386
S11300100C9488000C9488000C9488000C9488003C
S11300200C9488000C9488000C9488000C9488002C
S11300300C9488000C9488000C9488000C9488001C
S11300400C9488000C9488000C9488000C9488000C
S11300500C9488005E04630468046D0472047704DD
S11300607C04810486048B0490049504E404CB048A
S1130070F304CB04E604C004EB04CB04FB04CB047C
S1130080CB04CB04CB04CB04CB04CB04CB040205BC
S113009000056E07D806D806D806D806D806D806AE
S11300A06107D806D806D806D806D8066507D80644
S11300B01E07D8060307F8060C07D8063E07D8061D
S11300C0D806D806D806D806D806D806D8064B07C8
S11300D051075D07570711241FBECFE5D4E0DEBFEB
S11300E0CDBF11E0A0E6B0E0EEE9F9E102C0059071
S11300F00D92A237B107D9F723E0A2E7B1E001C01E
S11301001D92AA30B207E1F70E9472070C94CD0C3D
S11301100C940000FC01908121E030E002C0220F29
S1130120331F6A95E2F72095292320830895FC0163
S1130130408121E030E002C0220F331F6A95E2F7CC
S1130140242B20830895FC018081462F90E002C077
S1130150959587956A95E2F780FD18C081EE94E045
S11301600197F1F700C00000208130E0042E02C0A6
S1130170359527950A94E2F720FFF6CF81EE94E0B7
S11301800197F1F700C0000081E0089580E0089530
S11301908BB380648BBB00C08BB38F7B8BBB089508
S11301A0CF93DF93D82F662321F08BB380618BBB71
S11301B003C08BB38F7E8BBB8BB38F7D8BBB8AB31A
S11301C08F608ABBCBB3C07F8D2F82958F708C2BB1
S11301D08BBB0E94C800DF70DC2BDBBB0E94C80015
S11301E0CF60CBBBDF91CF910895882321F08BB3EF
S11301F080618BBB03C08BB38F7E8BBB8BB3806260
S11302008BBB8AB3807F8ABB8BB380648BBB00C0FB
S113021099B39295907F8BB38F7B8BBB00C08BB3CC
S113022080648BBB00C089B38F702BB32F7B2BBB37
S1130230892B089580E00E94F5008823DCF300C038
S113024080E00E94F5000895CF93C82F0E941A0100
S113025060E08C2F0E94D000CF910895611104C0FA
S113026080580E942401089580540E942401089516
S113027081E00E9424010895CF93C82F0E941A019F
S1130280CA3049F4803410F480E401C080E080581E
S11302900E94240104C061E08C2F0E94D000CF9101
S11302A00895CF93DF93FC0103C00E943C01FE013B
S11302B0EF01219680818111F8CFDF91CF910895CC
S11302C01F93CF93DF93182F8AB38F678ABB80EA7B
S11302D09FE00197F1F78BB382608BBB8BB3816096
S11302E08BBB0E94C80080EE94E00197F1F70E9456
S11302F0C800C0E1D0E0CE010197F1F70E94C80028
S1130300CE010197F1F78BB38E7F8BBB0E94C8009F
S11303102197F1F788E20E94240188E00E942401D9
S11303200E94380186E00E942401812F0E9424014A
S1130330DF91CF911F9108958FE00E94600188E0C2
S113034087BB18BA80EF84BB8FEF85BB12BE83B71F
S1130350886083BF88B7806888BF89B7806889BF91
S113036014BC8CE783BD85B58A6085BD78940895F7
S1130370CF93DF93D4E03BC06D2F85E390E00E94E0
S11303808A0081EE94E00197F1F700C00000C0E01C
S113039020C06C2F83E390E00E94A3008823C1F067
S11303A06D2F85E390E00E94970087E090E08D1B1D
S11303B0910923E030E02C1B3109880F991F880F25
S11303C0991F8F599E4FFC01E20FF31F808112C0C9
S11303D0CF5FC430F0F26D2F85E390E00E94970068
S11303E081EE94E00197F1F700C00000DF5FD830A0
S11303F018F280E0DF91CF910895CF93DF93D82F47
S1130400C0E060E070E0CB011AC02C2F30E04D2F2B
S113041050E00C2E02C0559547950A94E2F740FF30
S11304200DC0220F331F220F331FF901E75BFE4F6C
S113043020813181428153810E947707CF5FC6308A
S113044020F3DF91CF910895E0910503F0E0EE0FE2
S1130450FF1FEE58FE4F918181E0911180E00895D5
S113046011C0D9011196AA0FBB1FAE58BE4F9C9163
S1130470220F331FF901EE58FE4F908311969C9181
S113048091838F5F282F30E0F901EE0FFF1FEE58A4
S1130490FE4F91819111E5CF220F331FF901EE58E0
S11304A0FE4F108211820895EF92FF920F931F93D3
S11304B0CF93DF9300D000D01F92CDB7DEB70E9458
S11304C038018CE00E94240160E080E00E942E014B
S11304D085E690E00E945101FE01319685E0DF013E
S11304E01D928A95E9F700E010E00E94B80181347A
S11304F0F1F40115110511F40CE310E0009364000C
S1130500602F70E080E090E00E945A089B01AC01EB
S113051060E070E080E792E40E94E8076093600086
S113052070936100809362009093630055C082349D
S113053009F452C0843469F49801ADECBCEC0E9417
S113054098098C01169507951695079516950795A4
S113055020C090ED980F9A3040F69801220F331F77
S1130560B801660F771F660F771F660F771F620F3C
S1130570731F680F711D8B01005311090F3F110583
S113058041F038F08CE690E00E9451010FEF10E04A
S1130590ACCF60E085E00E942E0180E790E00E94ED
S11305A0510160E085E00E942E011F930F9384E7C0
S11305B090E09F938F93CE0101967C019F938F933C
S11305C00E94BB09C7010E9451010F900F900F9028
S11305D00F900F900F9089CF0F900F900F900F9066
S11305E00F90DF91CF911F910F91FF90EF9008959D
S11305F0CF93DF930E9438018CE00E94240161E0D4
S113060080E00E942E0187E790E00E945101D0E033
S1130610C0E017C060E08C2F880F0E942E012D2FA0
S113062030E00C2E02C0359527950A94E2F720FDA0
S113063004C080E30E943C0103C081E30E943C01AA
S1130640CF5FC63038F30E94B80190ED980F963012
S113065060F4482F50E04053510921E030E002C0DB
S1130660220F331F4A95E2F7D227813419F08234DE
S113067029F0CECFD11104C084E003C08FEF01C0B4
S11306808D2FDF91CF910895811104C083B78F7EA0
S113069083BF089593B7906193BF93B7987F93BF37
S11306A090E0FC01EE0FFF1FE153FF4F2181283042
S11306B021F423B7226023BF03C023B7236023BFE1
S11306C0880F991FFC01E153FF4F80818CBF08956F
S11306D01F920F920FB60F921124CF92DF92EF92D6
S11306E0FF922F933F934F935F936F937F938F93D7
S11306F09F93AF93BF93EF93FF9380910403882359
S113070009F491C0813009F05DC0C0900603D09017
S11307100703E0900803F090090320E030E0A9010A
S1130720C701B6010E940C09181604F520E030E058
S113073040E85FE3C701B6010E94760760930603B1
S113074070930703809308039093090320E030E03B
S1130750A9010E94E3071816ACF183B78F7E83BF0B
S1130760809105038F5F809305032CC0E0910503FE
S1130770F0E0EE0FFF1FEE58FE4F80810E9444030D
S1130780E0910503F0E0EE0FFF1FEE58FE4F81816C
S11307900E94FD012091600030916100409162004F
S11307A0509163000E94110920E030E04AE754E4CC
S11307B00E94110960930603709307038093080352
S11307C09093090380910403823069F5C090060375
S11307D0D0900703E0900803F090090320E030E094
S11307E0A901C701B6010E940C091816E4F420E01F
S11307F030E040E85FE3C701B6010E9476076093EA
S1130800060370930703809308039093090320E081
S113081030E0A9010E94E30718162CF083B78F7EFD
S113082083BF10920403FF91EF91BF91AF919F9109
S11308308F917F916F915F914F913F912F91FF9095
S1130840EF90DF90CF900F900FBE0F901F901895F0
S11308500E94440380E090E0AAE7B4E48093060396
S113086090930703A0930803B093090382E0809355
S113087004030895CF93C82F811105C083E890E045
S11308800E94510161C04BEA849F412D1124E42F41
S1130890E695E695E6954E2F440F4E0F842F880F6C
S11308A0880FEC2FE81B4E2F50E04C30510508F018
S11308B040C0FA01E65DFF4F0C94920987E890E08E
S11308C00E94510136C08AE890E00E94510131C073
S11308D08DE890E00E9451012CC080E990E00E94D4
S11308E0510127C083E990E00E94510122C086E9AA
S11308F090E00E9451011DC089E990E00E945101DD
S113090018C08CE990E00E94510113C08FE990E077
S11309100E9451010EC082EA90E00E94510109C078
S113092085EA90E00E94510104C088EA90E00E94A8
S113093051018C2F90E001976CE070E00E947E09D9
S113094082E3860F0E943C01CF910895CF93DF93F9
S11309500E94380160E085E00E942E018BEA90E05D
S11309600E94510161E085E00E942E0185EB90E038
S11309700E9451018CE00E942401D1E0C2E20BC02C
S1130980D1E009C0D1E007C0D1E005C0D1E0CCE39B
S113099002C0D1E0C1E0DD2321F08C2F0E942804A5
S11309A0D0E060E080E00E942E018C2F0E943A0487
S11309B00E94B80190E0FC01F097E331F10558F78B
S11309C0EA5CFF4F0C94920980E01DC0C230D0F263
S11309D0C150D1E0E0CF8C2F90E00196CD97A4F6E2
S11309E0CF5FD1E0D8CF8C2F90E00C96CD9774F6E2
S11309F0C45FD1E0D0CFCD3060F2CC50D1E0CBCFCA
S1130A008FEF01C08C2FDF91CF910895CF93DF93A7
S1130A10C82F0E94A604D82F8F3FC1F00E94F8026D
S1130A208F3F11F413C0822FEC2FF0E0EE0FFF1F65
S1130A30EE58FE4F9081D08321818183CF5FD92FDF
S1130A408111F1CF1092000310920103DF91CF9135
S1130A5008951F93CF93DF93C82FD0E0FE01EE0FCC
S1130A60FF1FEE58FE4F9181911103C00E940605AD
S1130A700FC00E94A604182F8F3F51F00E94F80265
S1130A808F3F31F0CC0FDD1FCE58DE4F18838983A2
S1130A90DF91CF911F910895CF93C82F82958F70C6
S1130AA08A3020F0895C0E943C0103C0805D0E9472
S1130AB03C018C2F8F708A3020F0895C0E943C01AD
S1130AC003C0805D0E943C01CF9108950E943801CB
S1130AD08FE00E942401809105038823F1F060E0F7
S1130AE080E00E942E01E0910503F0E03197EE0FC3
S1130AF0FF1FEE58FE4F80810E943A0461E080E0BF
S1130B000E942E01E0910503F0E03197EE0FFF1FE4
S1130B10EE58FE4F81810E944C0560E084E00E9403
S1130B202E01E0910503F0E0EE0FFF1FEE58FE4F9B
S1130B3080810E943A0461E084E00E942E01E091E9
S1130B400503F0E0EE0FFF1FEE58FE4F81810E9477
S1130B504C05E0910503F0E03196EE0FFF1FEE58CF
S1130B60FE4F8181882309F447C060E088E00E9439
S1130B702E01E0910503F0E03196EE0FFF1FEE58D1
S1130B80FE4F80810E943A0461E088E00E942E01B9
S1130B90E0910503F0E03196EE0FFF1FEE58FE4F93
S1130BA081810E944C05E0910503F0E03296EE0F3E
S1130BB0FF1FEE58FE4F81818823F1F060E08CE046
S1130BC00E942E01E0910503F0E03296EE0FFF1F24
S1130BD0EE58FE4F80810E943A0461E08CE00E944E
S1130BE02E01E0910503F0E03296EE0FFF1FEE5860
S1130BF0FE4F81810E944C0560E084E00E942E013A
S1130C000895CF93109206031092070310920803DD
S1130C101092090381E08093040306C00E94B80186
S1130C20813459F00E946605C09105038C2F0E94FF
S1130C302402811102C0C83C88F31092040383B7D4
S1130C408F7E83BFCF91089520E030E014C033231A
S1130C5041F0880F991FFC01EE58FE4F108211825B
S1130C6009C0880F991FFC01EE58FE4F8181811144
S1130C7001C031E02F5F822F90E0893C91053CF365
S1130C800895CF93DF930E9438018CE00E942401E1
S1130C908FEB90E00E94510161E080E00E942E0100
S1130CA085EB90E00E9451010E94B801813419F053
S1130CB08234D1F721C00E9424066091640070E060
S1130CC080E090E00E94740CC1E0D0E012C0FE010C
S1130CD03197EE0FFF1FEE58FE4F608170E0762FC4
S1130CE066278181682BCE01880F991F0E94740C9E
S1130CF02196CA3CD10558F3DF91CF910895CF9343
S1130D00DF930E9438018CE00E94240187EC90E07C
S1130D100E94510161E080E00E942E0185EB90E089
S1130D200E9451010E94B801813419F08234D1F734
S1130D3034C080E090E00E946E0C80936400682FC1
S1130D4070E080E090E00E945A089B01AC0160E0F2
S1130D5070E080E792E40E94E8076093600070937B
S1130D6061008093620090936300C1E0D0E00EC004
S1130D70CE01880F991F0E946E0CFE013197EE0F71
S1130D80FF1FEE58FE4F908381832196CA3CD10504
S1130D9078F30E94240610920503DF91CF91089501
S1130DA010920503D1E0C1E003C0C1E001C0C1E07D
S1130DB0CC2391F00E946605DD2361F0E0910503E8
S1130DC0F0E0EE0FFF1FEE58FE4F80810E942804D2
S1130DD0C0E002C0D1E0C0E00E94B80190E0FC0194
S1130DE0B397E232F10520F7E75BFF4F0C949209C9
S1130DF0E0910503F0E0EE0FFF1FEE58FE4F8081F7
S1130E000E942804D5CF80910503882371F2815074
S1130E1080930503C1E0CCCF80910503E82FF0E077
S1130E203196EE0FFF1FEE58FE4F9181992309F47E
S1130E30BECF8F5F80930503C1E0BACF2091050335
S1130E40822F90E00A96883C910524F4265F209333
S1130E50050307C087EC8093050303C0815080938A
S1130E60050380910503E82FF0E0EE0FFF1FEE5815
S1130E70FE4F9181992391F3C1E09ACF80910503AC
S1130E808C3028F08C5080930503C1E091CF1092F0
S1130E900503C1E08DCF809105030E940605C1E0E2
S1130EA087CF809105030E942905C1E081CF8091FD
S1130EB005030E943002C1E07BCF0E945402C1E0CE
S1130EC077CF0E944106C1E073CFC09105030E9411
S1130ED00106C0930503D0E0C1E06ACF0E947F06FB
S1130EE0C1E066CF0E949C010E94D0065058BB27E7
S1130EF0AA270E948E070C94D2080E94C40838F0D6
S1130F000E94CB0820F039F49F3F19F426F40C9486
S1130F10C1080EF4E095E7FB0C94BB08E92F0E948E
S1130F20E30858F3BA17620773078407950720F09C
S1130F3079F4A6F50C9405090EF4E0950B2EBA2F5E
S1130F40A02D0B01B90190010C01CA01A0011124CB
S1130F50FF27591B99F0593F50F4503E68F11A1677
S1130F60F040A22F232F342F4427585FF3CF469508
S1130F7037952795A795F0405395C9F77EF41F162A
S1130F80BA0B620B730B840BBAF09150A1F0FF0FF4
S1130F90BB1F661F771F881FC2F70EC0BA0F621FE0
S1130FA0731F841F48F4879577956795B795F795D0
S1130FB09E3F08F0B0CF9395880F08F09927EE0F65
S1130FC09795879508950E94970808F481E00895FD
S1130FD00E94FC070C94D2080E94CB0858F00E948F
S1130FE0C40840F029F45F3F29F00C94BB08511168
S1130FF00C9406090C94C1080E94E30868F3992331
S1131000B1F3552391F3951B550BBB27AA27621700
S11310107307840738F09F5F5F4F220F331F441F0D
S1131020AA1FA9F335D00E2E3AF0E0E832D0915041
S11310305040E695001CCAF72BD0FE2F29D0660F2E
S1131040771F881FBB1F261737074807AB07B0E871
S113105009F0BB0B802DBF01FF2793585F4F3AF077
S11310609E3F510578F00C94BB080C9406095F3F31
S1131070E4F3983ED4F3869577956795B795F795FD
S11310809F5FC9F7880F911D9695879597F90895E5
S1131090E1E0660F771F881FBB1F62177307840781
S11310A0BA0720F0621B730B840BBA0BEE1F88F790
S11310B0E0950895E89409C097FB3EF490958095D7
S11310C0709561957F4F8F4F9F4F9923A9F0F92F0A
S11310D096E9BB279395F695879577956795B79588
S11310E0F111F8CFFAF4BB0F11F460FF1BC06F5F6E
S11310F07F4F8F4F9F4F16C0882311F096E911C080
S1131100772321F09EE8872F762F05C0662371F0A0
S113111096E8862F70E060E02AF09A95660F771FB4
S1131120881FDAF7880F9695879597F90895990F90
S11311300008550FAA0BE0E8FEEF16161706E8079D
S1131140F907C0F012161306E407F50798F0621BBE
S1131150730B840B950B39F40A2661F0232B242B93
S1131160252B21F408950A2609F4A140A6958FEFB2
S1131170811D811D089597F99F6780E870E060E004
S113118008959FEF80EC089500240A94161617061C
S113119018060906089500240A9412161306140664
S11311A005060895092E0394000C11F4882352F0C7
S11311B0BB0F40F4BF2B11F460FF04C06F5F7F4F7F
S11311C08F4F9F4F089557FD9058440F551F59F066
S11311D05F3F71F04795880F97FB991F61F09F3F20
S11311E079F087950895121613061406551FF2CF49
S11311F04695F1DF08C0161617061806991FF1CF99
S113120086957105610508940895E894BB276627BF
S11312107727CB0197F908950E94970808F48FEF78
S113122008950E9424090C94D2080E94C40838F03E
S11312300E94CB0820F0952311F00C94BB080C9469
S1131240C10811240C9406090E94E30870F3959FC9
S1131250C1F3950F50E0551F629FF001729FBB27A9
S1131260F00DB11D639FAA27F00DB11DAA1F649F45
S11312706627B00DA11D661F829F2227B00DA11DF8
S1131280621F739FB00DA11D621F839FA00D611D7E
S1131290221F749F3327A00D611D231F849F600D9F
S11312A0211D822F762F6A2F11249F5750409AF0C8
S11312B0F1F088234AF0EE0FFF1FBB1F661F771F54
S11312C0881F91505040A9F79E3F510580F00C941F
S11312D0BB080C9406095F3FE4F3983ED4F386956B
S11312E077956795B795F795E7959F5FC1F7FE2BBF
S11312F0880F911D9695879597F9089597FB072E6A
S113130016F4009407D077FD09D00E94A70907FCC2
S113131005D03EF4909581959F4F08957095619501
S11313207F4F0895EE0FFF1F0590F491E02D09946F
S1131330A29FB001B39FC001A39F700D811D112412
S1131340911DB29F700D811D1124911D0895AA1B3A
S1131350BB1B51E107C0AA1FBB1FA617B70710F09C
S1131360A61BB70B881F991F5A95A9F780959095CE
S1131370BC01CD010895AEE0B0E0E1ECF9E00C94DD
S1131380A40C0D891E8986E08C831A8309838FEF50
S11313909FE79E838D83AE01475E5F4F6F89788D93
S11313A0CE0101960E94DD09EF81F885E00FF11F5F
S11313B010822E96E4E00C94C00CABE0B0E0E3EEB7
S11313C0F9E00C94960C6C017B018A01FC011782F4
S11313D01682838181FFCCC1CE0101963C01F601C6
S11313E09381F70193FD859193FF81917F01882378
S11313F009F4BAC1853239F493FD859193FF819143
S11314007F01853229F4B60190E00E94D40BE7CF26
S1131410912C212C312CFFE1F315D8F08B3279F08B
S113142038F4803279F08332A1F4232D20611DC079
S11314308D3261F0803369F4232D216016C0832D31
S11314408260382EE32DE4603E2E2AC0F32DF8602E
S11314501DC037FC2DC020ED280F2A3040F08E32FD
S1131460B9F436FC81C1232D2064322E19C036FE16
S113147006C08AE0989E200D1124922E11C0EAE045
S11314802E9E200D1124222EF32DF0623F2E08C033
S11314908C3621F4832D8068382E02C0883641F4BE
S11314A0F70193FD859193FF81917F018111B3CF62
S11314B0982F9F7D9554933028F40C5F1F4F9FE322
S11314C099830DC0833631F0833771F0833509F089
S11314D059C021C0F801808189830E5F1F4F882481
S11314E08394912C530113C02801F2E04F0E511C38
S11314F0F801A080B18036FE03C0692D70E002C0FF
S11315006FEF7FEFC5010E94C90B4C018201F32DDF
S1131510FF773F2E16C0280122E0420E511CF8012D
S1131520A080B18036FE03C0692D70E002C06FEF69
S11315307FEFC5010E94BE0B4C01F32DF0683F2ED6
S1131540820133FC1BC0822D90E088169906B0F40A
S1131550B60180E290E00E94D40B2A94F4CFF50106
S113156037FC859137FE81915F01B60190E00E94BE
S1131570D40B21102A9421E0821A91088114910439
S113158071F7E8C0843611F0893641F5F80137FE69
S113159007C060817181828193810C5F1F4F08C0F5
S11315A060817181072E000C880B990B0E5F1F4F11
S11315B0F32DFF763F2E97FF09C090958095709587
S11315C061957F4F8F4F9F4FF0683F2E2AE030E0A8
S11315D0A3010E94100C882E861845C0853731F46B
S11315E0232D2F7EB22E2AE030E025C0932D997F43
S11315F0B92E8F36C1F018F4883579F0B5C080372C
S113160019F0883721F0B0C0E92FE061BE2EB4FE96
S11316100DC0FB2DF460BF2E09C034FE0AC0292F73
S11316202660B22E06C028E030E005C020E130E09C
S113163002C020E132E0F801B7FE07C06081718189
S1131640828193810C5F1F4F06C06081718180E0AD
S113165090E00E5F1F4FA3010E94100C882E861885
S1131660FB2DFF773F2E36FE0DC0232D2E7FA22E9D
S1131670891458F434FE0BC032FC09C0832D8E7ECD
S1131680A82E05C0B82CA32C03C0B82C01C0B92CBB
S1131690A4FE0FC0FE01E80DF11D8081803321F40A
S11316A09A2D997EA92E09C0A2FE06C0B394B394C4
S11316B004C08A2D867809F0B394A3FC11C0A0FE5F
S11316C006C0B21488F4280C922C9B180EC0B214D5
S11316D060F4B60180E290E00E94D40BB394F7CF9B
S11316E0B21418F42B1802C0982C212CA4FE10C09C
S11316F0B60180E390E00E94D40BA2FE17C0A1FCC7
S113170003C088E790E002C088E590E0B6010CC011
S11317108A2D867859F0A1FE02C08BE201C080E2D6
S1131720A7FC8DE2B60190E00E94D40B891438F432
S1131730B60180E390E00E94D40B9A94F7CF8A9488
S1131740F301E80DF11D8081B60190E00E94D40BF5
S11317508110F5CF222009F442CEB60180E290E058
S11317600E94D40B2A94F6CFF6018681978102C099
S11317708FEF9FEF2B96E2E10C94B20CFC010590E5
S1131780615070400110D8F7809590958E0F9F1F7F
S11317900895FC016150704001900110D8F78095C4
S11317A090958E0F9F1F08950F931F93CF93DF93F0
S11317B0FB01238121FD03C08FEF9FEF2CC022FF8B
S11317C016C046815781248135814217530744F45A
S11317D0A081B1819D012F5F3F4F318320838C9382
S11317E0268137812F5F3F4F3783268314C08B01B7
S11317F0EC01FB010084F185E02D0995892BE1F6CC
S1131800D80116968D919C911797019617969C93E3
S11318108E931697CE01DF91CF911F910F9108956A
S1131820FA01AA27283051F1203181F1E8946F930D
S11318306E7F6E5F7F4F8F4F9F4FAF4FB1E03ED0B3
S1131840B4E03CD0670F781F891F9A1FA11D680F51
S1131850791F8A1F911DA11D6A0F711D811D911D84
S1131860A11D20D009F468943F912AE0269F1124F9
S11318703019305D3193DEF6CF010895462F47705D
S1131880405D4193B3E00FD0C9F7F6CF462F4F70B8
S1131890405D4A3318F0495D31FD4052419302D016
S11318A0A9F7EACFB4E0A6959795879577956795BC
S11318B0BA95C9F700976105710508959B01AC01BC
S11318C00A2E06945795479537952795BA95C9F7E3
S11318D0620F731F841F951FA01D0895A8E1B0E037
S11318E042E050E00C947B0C0E94890C272F0C944E
S11318F08A0CDC01CB01FC01E199FECF06C0FFBBE1
S1131900EEBBE09A31960DB20D9241505040B8F7BB
S11319100895262FE199FECF9FBB8EBB2DBB0FB63A
S1131920F894E29AE19A0FBE019608952F923F929D
S11319304F925F926F927F928F929F92AF92BF92DB
S1131940CF92DF92EF92FF920F931F93CF93DF9387
S1131950CDB7DEB7CA1BDB0B0FB6F894DEBF0FBEE4
S1131960CDBF09942A88398848885F846E847D8431
S11319708C849B84AA84B984C884DF80EE80FD8033
S11319800C811B81AA81B981CE0FD11D0FB6F894A9
S1111990DEBF0FBECDBFED010895F894FFCF6A
S113199EEE69043F7442504D3A2030003235350022
S11319AE202020002564007720682071206F20738A
S11319BE2074002D2D2D00422000432000432300CF
S11319CE44200044230045200046200046230047BF
S11319DE2000472300412000412300413A20536553
S11319EE6C65637400423A2043616E63656C00411A
S11319FE3A205361766500413A204C6F61640000D1
S1131A0E0076407040694064405E40594054404FF7
S1131A1E404A40464042403F403B403740344032CB
S1131A2E402E402C4029402740254023402040FC96
S1131A3E08EE08E008D408C808BD08B208A8089E35
S1131A4E0895088D0885087E08760870086908636D
S1131A5E085E08590854084F084A08460842083ECA
S1131A6E083B083708340831082E082C08290827A3
S1131A7E082508230821081F0800008040000000E4
S1131A8E400000803F0000003F0000803E00000048
S1131A9E3E3132334134353642373839432A3023D6
S1051AAE4400EE
S9030000FC
